{
  "contractName": "ERC721Enumerable",
  "abi": [
    {
      "inputs": [],
      "stateMutability": "nonpayable",
      "type": "constructor"
    },
    {
      "anonymous": false,
      "inputs": [
        {
          "indexed": true,
          "internalType": "address",
          "name": "owner",
          "type": "address"
        },
        {
          "indexed": true,
          "internalType": "address",
          "name": "approved",
          "type": "address"
        },
        {
          "indexed": true,
          "internalType": "uint256",
          "name": "tokenId",
          "type": "uint256"
        }
      ],
      "name": "Approval",
      "type": "event"
    },
    {
      "anonymous": false,
      "inputs": [
        {
          "indexed": true,
          "internalType": "address",
          "name": "_from",
          "type": "address"
        },
        {
          "indexed": true,
          "internalType": "address",
          "name": "_to",
          "type": "address"
        },
        {
          "indexed": true,
          "internalType": "uint256",
          "name": "_tokenId",
          "type": "uint256"
        }
      ],
      "name": "Transfer",
      "type": "event"
    },
    {
      "inputs": [
        {
          "internalType": "address",
          "name": "to",
          "type": "address"
        },
        {
          "internalType": "uint256",
          "name": "tokenId",
          "type": "uint256"
        }
      ],
      "name": "approve",
      "outputs": [],
      "stateMutability": "nonpayable",
      "type": "function"
    },
    {
      "inputs": [
        {
          "internalType": "address",
          "name": "owner",
          "type": "address"
        }
      ],
      "name": "balanceOf",
      "outputs": [
        {
          "internalType": "uint256",
          "name": "",
          "type": "uint256"
        }
      ],
      "stateMutability": "view",
      "type": "function"
    },
    {
      "inputs": [
        {
          "internalType": "uint256",
          "name": "tokenId",
          "type": "uint256"
        }
      ],
      "name": "getApproved",
      "outputs": [
        {
          "internalType": "address",
          "name": "",
          "type": "address"
        }
      ],
      "stateMutability": "view",
      "type": "function"
    },
    {
      "inputs": [
        {
          "internalType": "uint256",
          "name": "token",
          "type": "uint256"
        }
      ],
      "name": "ownerOf",
      "outputs": [
        {
          "internalType": "address",
          "name": "",
          "type": "address"
        }
      ],
      "stateMutability": "view",
      "type": "function"
    },
    {
      "inputs": [
        {
          "internalType": "bytes4",
          "name": "interfaceId",
          "type": "bytes4"
        }
      ],
      "name": "supportsInterface",
      "outputs": [
        {
          "internalType": "bool",
          "name": "",
          "type": "bool"
        }
      ],
      "stateMutability": "view",
      "type": "function"
    },
    {
      "inputs": [
        {
          "internalType": "address",
          "name": "from",
          "type": "address"
        },
        {
          "internalType": "address",
          "name": "to",
          "type": "address"
        },
        {
          "internalType": "uint256",
          "name": "tokenId",
          "type": "uint256"
        }
      ],
      "name": "transferFrom",
      "outputs": [],
      "stateMutability": "nonpayable",
      "type": "function"
    },
    {
      "inputs": [],
      "name": "totalSupply",
      "outputs": [
        {
          "internalType": "uint256",
          "name": "",
          "type": "uint256"
        }
      ],
      "stateMutability": "view",
      "type": "function"
    },
    {
      "inputs": [
        {
          "internalType": "uint256",
          "name": "index",
          "type": "uint256"
        }
      ],
      "name": "tokenByIndex",
      "outputs": [
        {
          "internalType": "uint256",
          "name": "",
          "type": "uint256"
        }
      ],
      "stateMutability": "view",
      "type": "function"
    },
    {
      "inputs": [
        {
          "internalType": "address",
          "name": "owner",
          "type": "address"
        },
        {
          "internalType": "uint256",
          "name": "index",
          "type": "uint256"
        }
      ],
      "name": "tokenOfOwnerByIndex",
      "outputs": [
        {
          "internalType": "uint256",
          "name": "",
          "type": "uint256"
        }
      ],
      "stateMutability": "view",
      "type": "function"
    }
  ],
  "bytecode": "0x608060405234801561001057600080fd5b506100407f70a3e9da4957150b8640beae7379e7ac568e876a39c126327df618b9e3684edb61012b60201b60201c565b6100b37f22c82707ba960a14c7592ffb6b8cfaa073fed0048a84cc7fa41f6b5bd8e7f2e47f3a6eb71757dfc6e784c1459d26270140c2c147d95ca985c80026fc5301c3eca17faec5ad6393e26684e060a6dfb8b1a3519c3965e5d2de3d244418a4151a728431181861012b60201b60201c565b6101267f8230223f691b981717299fae9549350a0d894555723531f02108b1f522c1a7977f6da5e1284143cdd2d15038a59bde3be031250f00291d64494c12d967b3a4e0c37fc53637662700e6c65104059db8bba34439e0c32483ab7c34e3ccae52c7395495181861012b60201b60201c565b6101c9565b63ffffffff60e01b817bffffffffffffffffffffffffffffffffffffffffffffffffffffffff19160361015d57600080fd5b6001600080837bffffffffffffffffffffffffffffffffffffffffffffffffffffffff19167bffffffffffffffffffffffffffffffffffffffffffffffffffffffff1916815260200190815260200160002060006101000a81548160ff02191690831515021790555050565b6111d9806101d86000396000f3fe608060405234801561001057600080fd5b50600436106100935760003560e01c806323b872dd1161006657806323b872dd146101325780632f745c591461014e5780634f6ccce71461017e5780636352211e146101ae57806370a08231146101de57610093565b806301ffc9a714610098578063081812fc146100c8578063095ea7b3146100f857806318160ddd14610114575b600080fd5b6100b260048036038101906100ad9190610b58565b61020e565b6040516100bf9190610ba0565b60405180910390f35b6100e260048036038101906100dd9190610bf1565b610275565b6040516100ef9190610c5f565b60405180910390f35b610112600480360381019061010d9190610ca6565b6102c4565b005b61011c610407565b6040516101299190610cf5565b60405180910390f35b61014c60048036038101906101479190610d10565b610414565b005b61016860048036038101906101639190610ca6565b610437565b6040516101759190610cf5565b60405180910390f35b61019860048036038101906101939190610bf1565b6104e7565b6040516101a59190610cf5565b60405180910390f35b6101c860048036038101906101c39190610bf1565b61054e565b6040516101d59190610c5f565b60405180910390f35b6101f860048036038101906101f39190610d63565b6105ff565b6040516102059190610cf5565b60405180910390f35b6000806000837bffffffffffffffffffffffffffffffffffffffffffffffffffffffff19167bffffffffffffffffffffffffffffffffffffffffffffffffffffffff1916815260200190815260200160002060009054906101000a900460ff169050919050565b6000610280826106bd565b61028957600080fd5b6003600083815260200190815260200160002060009054906101000a900473ffffffffffffffffffffffffffffffffffffffff169050919050565b8173ffffffffffffffffffffffffffffffffffffffff166102e48261054e565b73ffffffffffffffffffffffffffffffffffffffff160361030457600080fd5b61030d8161054e565b73ffffffffffffffffffffffffffffffffffffffff163373ffffffffffffffffffffffffffffffffffffffff161461034457600080fd5b816003600083815260200190815260200160002060006101000a81548173ffffffffffffffffffffffffffffffffffffffff021916908373ffffffffffffffffffffffffffffffffffffffff16021790555061039f81610275565b50808273ffffffffffffffffffffffffffffffffffffffff166103c18361054e565b73ffffffffffffffffffffffffffffffffffffffff167f8c5be1e5ebec7d5bd14f71427d1e84f3dd0314c0f7b2291e5b200ac8c7c3b92560405160405180910390a45050565b6000600480549050905090565b61041e338261072f565b61042757600080fd5b6104328383836107c6565b505050565b6000610442836105ff565b8210610483576040517f08c379a000000000000000000000000000000000000000000000000000000000815260040161047a90610ded565b60405180910390fd5b600660008473ffffffffffffffffffffffffffffffffffffffff1673ffffffffffffffffffffffffffffffffffffffff16815260200190815260200160002082815481106104d4576104d3610e0d565b5b9060005260206000200154905092915050565b60006104f1610407565b821115610533576040517f08c379a000000000000000000000000000000000000000000000000000000000815260040161052a90610ded565b60405180910390fd5b60056000838152602001908152602001600020549050919050565b6000806001600084815260200190815260200160002060009054906101000a900473ffffffffffffffffffffffffffffffffffffffff169050600073ffffffffffffffffffffffffffffffffffffffff168173ffffffffffffffffffffffffffffffffffffffff16036105f6576040517f08c379a00000000000000000000000000000000000000000000000000000000081526004016105ed90610e88565b60405180910390fd5b80915050919050565b60008073ffffffffffffffffffffffffffffffffffffffff168273ffffffffffffffffffffffffffffffffffffffff160361066f576040517f08c379a000000000000000000000000000000000000000000000000000000000815260040161066690610ef4565b60405180910390fd5b6106b6600260008473ffffffffffffffffffffffffffffffffffffffff1673ffffffffffffffffffffffffffffffffffffffff1681526020019081526020016000206109eb565b9050919050565b6000806001600084815260200190815260200160002060009054906101000a900473ffffffffffffffffffffffffffffffffffffffff169050600073ffffffffffffffffffffffffffffffffffffffff168173ffffffffffffffffffffffffffffffffffffffff161415915050919050565b600061073a826106bd565b61074357600080fd5b600061074e8361054e565b90508073ffffffffffffffffffffffffffffffffffffffff168473ffffffffffffffffffffffffffffffffffffffff1614806107bd57508373ffffffffffffffffffffffffffffffffffffffff166107a584610275565b73ffffffffffffffffffffffffffffffffffffffff16145b91505092915050565b600073ffffffffffffffffffffffffffffffffffffffff168273ffffffffffffffffffffffffffffffffffffffff1603610835576040517f08c379a000000000000000000000000000000000000000000000000000000000815260040161082c90610f60565b60405180910390fd5b8273ffffffffffffffffffffffffffffffffffffffff166108558261054e565b73ffffffffffffffffffffffffffffffffffffffff16146108ab576040517f08c379a00000000000000000000000000000000000000000000000000000000081526004016108a290610ff2565b60405180910390fd5b816001600083815260200190815260200160002060006101000a81548173ffffffffffffffffffffffffffffffffffffffff021916908373ffffffffffffffffffffffffffffffffffffffff160217905550610944600260008573ffffffffffffffffffffffffffffffffffffffff1673ffffffffffffffffffffffffffffffffffffffff1681526020019081526020016000206109f9565b61098b600260008473ffffffffffffffffffffffffffffffffffffffff1673ffffffffffffffffffffffffffffffffffffffff168152602001908152602001600020610a1c565b808273ffffffffffffffffffffffffffffffffffffffff168473ffffffffffffffffffffffffffffffffffffffff167fddf252ad1be2c89b69c2b068fc378daa952ba7f163c4a11628f55a4df523b3ef60405160405180910390a4505050565b600081600001549050919050565b610a1160018260000154610a3f90919063ffffffff16565b816000018190555050565b610a3460018260000154610a9d90919063ffffffff16565b816000018190555050565b6000808284610a4e9190611041565b905083831115610a93576040517f08c379a0000000000000000000000000000000000000000000000000000000008152600401610a8a906110c1565b60405180910390fd5b8091505092915050565b6000808284610aac91906110e1565b905083811015610af1576040517f08c379a0000000000000000000000000000000000000000000000000000000008152600401610ae890611183565b60405180910390fd5b8091505092915050565b600080fd5b60007fffffffff0000000000000000000000000000000000000000000000000000000082169050919050565b610b3581610b00565b8114610b4057600080fd5b50565b600081359050610b5281610b2c565b92915050565b600060208284031215610b6e57610b6d610afb565b5b6000610b7c84828501610b43565b91505092915050565b60008115159050919050565b610b9a81610b85565b82525050565b6000602082019050610bb56000830184610b91565b92915050565b6000819050919050565b610bce81610bbb565b8114610bd957600080fd5b50565b600081359050610beb81610bc5565b92915050565b600060208284031215610c0757610c06610afb565b5b6000610c1584828501610bdc565b91505092915050565b600073ffffffffffffffffffffffffffffffffffffffff82169050919050565b6000610c4982610c1e565b9050919050565b610c5981610c3e565b82525050565b6000602082019050610c746000830184610c50565b92915050565b610c8381610c3e565b8114610c8e57600080fd5b50565b600081359050610ca081610c7a565b92915050565b60008060408385031215610cbd57610cbc610afb565b5b6000610ccb85828601610c91565b9250506020610cdc85828601610bdc565b9150509250929050565b610cef81610bbb565b82525050565b6000602082019050610d0a6000830184610ce6565b92915050565b600080600060608486031215610d2957610d28610afb565b5b6000610d3786828701610c91565b9350506020610d4886828701610c91565b9250506040610d5986828701610bdc565b9150509250925092565b600060208284031215610d7957610d78610afb565b5b6000610d8784828501610c91565b91505092915050565b600082825260208201905092915050565b7f696e646578206f7574206f6620626f756e640000000000000000000000000000600082015250565b6000610dd7601283610d90565b9150610de282610da1565b602082019050919050565b60006020820190508181036000830152610e0681610dca565b9050919050565b7f4e487b7100000000000000000000000000000000000000000000000000000000600052603260045260246000fd5b7f6f776e6572206164647265737320646f6573206e6f7420657869737400000000600082015250565b6000610e72601c83610d90565b9150610e7d82610e3c565b602082019050919050565b60006020820190508181036000830152610ea181610e65565b9050919050565b7f4552433732313a6164647265737320646f6573206e6f74206578697374000000600082015250565b6000610ede601d83610d90565b9150610ee982610ea8565b602082019050919050565b60006020820190508181036000830152610f0d81610ed1565b9050919050565b7f696e76616c696420616464726573730000000000000000000000000000000000600082015250565b6000610f4a600f83610d90565b9150610f5582610f14565b602082019050919050565b60006020820190508181036000830152610f7981610f3d565b9050919050565b7f746f6b656e20646f6573206e6f742062656c6f6e6720746f207468697320616460008201527f6472657373000000000000000000000000000000000000000000000000000000602082015250565b6000610fdc602583610d90565b9150610fe782610f80565b604082019050919050565b6000602082019050818103600083015261100b81610fcf565b9050919050565b7f4e487b7100000000000000000000000000000000000000000000000000000000600052601160045260246000fd5b600061104c82610bbb565b915061105783610bbb565b92508282101561106a57611069611012565b5b828203905092915050565b7f53616665206d61746820636f6e646974696f6e206f766572666c6f7700000000600082015250565b60006110ab601c83610d90565b91506110b682611075565b602082019050919050565b600060208201905081810360008301526110da8161109e565b9050919050565b60006110ec82610bbb565b91506110f783610bbb565b9250827fffffffffffffffffffffffffffffffffffffffffffffffffffffffffffffffff0382111561112c5761112b611012565b5b828201905092915050565b7f53616665204d61746820636f6e646974696f6e206f766572666c6f7700000000600082015250565b600061116d601c83610d90565b915061117882611137565b602082019050919050565b6000602082019050818103600083015261119c81611160565b905091905056fea26469706673582212203af83c4c39ebc02ea7ea24cdbd4d58a9aca1d6e7a4371f93ca5e5186e79cff8464736f6c634300080d0033",
  "immutableReferences": {},
  "source": "//SPDX-License-Identifier:MIT\npragma solidity ^0.8.0;\nimport './ERC721.sol';\nimport './interfaces/IERC721Enumerable.sol';\ncontract ERC721Enumerable is ERC721,IERC721Enumerable\n{\n    uint [] private allTokens;\n    //mapping from tokenid to position in all token array\n    mapping(uint => uint) private alltokensindex; \n    //mapping of owner to list of all owner token id\n    mapping(address=>uint[]) private ownedtokens;\n    //mapping from token id to index of the owner token list\n    mapping(uint=>uint) private ownedtokensindex;\n    constructor()\n    {\n        register(bytes4(keccak256('totalSupply(bytes4)')^(keccak256('tokenByIndex(bytes4)'))^(keccak256('tokenOfOwnerByIndex(bytes4)'))));\n    }\n\n      //return the total supply of the all tokens array\n    function totalSupply() public override view returns(uint)\n    {\n        return allTokens.length;\n    }\n\n    //add tokens to the all tokens array and set the position of the token indexes\n    function addtokenstoalltokensenumerations(uint tokenId) private{\n        alltokensindex[tokenId]=allTokens.length;\n        allTokens.push(tokenId);\n\n    }\n    //functions-one that returns token by index\n    //function-token by owner index\n  function tokenByIndex(uint index) public override view returns(uint)\n    {\n        //make sure then index is not out of bound \n        require(index <= totalSupply(),'index out of bound');\n        return alltokensindex[index];\n    }\n\n  \n    function tokenOfOwnerByIndex(address owner,uint index) public override view returns(uint)\n    {\n        require(index < balanceOf(owner),'index out of bound');\n        return ownedtokens[owner][index];\n    }\n\n\n    function addtokenstoownerenumerations(uint tokenId,address to) private{\n        // add adress and token id to owner token ids\n        ownedtokensindex[tokenId]=ownedtokens[to].length;\n        ownedtokens[to].push(tokenId);\n        //owned token index token id set to address of owned tokens position\n        \n        //we want to excecute this function with minting\n    }\n    function _mint(address to,uint tokenId) internal override(ERC721)\n    {\n        super._mint(to,tokenId);\n        //1 we add tokens to the owner\n        addtokenstoalltokensenumerations(tokenId);\n        addtokenstoownerenumerations(tokenId, to);\n        //2 add tokens to total supply\n    }\n  \n    //function that will clear our nfts\n}",
  "sourcePath": "/home/unthinkable-lap-0315/Downloads/nft-marketplace-starter-kit/src/contracts/ERC721Enumerable.sol",
  "compiler": {
    "name": "solc",
    "version": "0.8.13+commit.abaa5c0e.Emscripten.clang"
  },
  "schemaVersion": "3.4.6",
  "updatedAt": "2022-04-04T14:36:24.479Z",
  "devdoc": {
    "kind": "dev",
    "methods": {},
    "version": 1
  },
  "userdoc": {
    "kind": "user",
    "methods": {},
    "version": 1
  }
}