{
  "contractName": "ERC721Connector",
  "abi": [
    {
      "inputs": [
        {
          "internalType": "string",
          "name": "name",
          "type": "string"
        },
        {
          "internalType": "string",
          "name": "symbol",
          "type": "string"
        }
      ],
      "stateMutability": "nonpayable",
      "type": "constructor"
    },
    {
      "anonymous": false,
      "inputs": [
        {
          "indexed": true,
          "internalType": "address",
          "name": "owner",
          "type": "address"
        },
        {
          "indexed": true,
          "internalType": "address",
          "name": "approved",
          "type": "address"
        },
        {
          "indexed": true,
          "internalType": "uint256",
          "name": "tokenId",
          "type": "uint256"
        }
      ],
      "name": "Approval",
      "type": "event"
    },
    {
      "anonymous": false,
      "inputs": [
        {
          "indexed": true,
          "internalType": "address",
          "name": "_from",
          "type": "address"
        },
        {
          "indexed": true,
          "internalType": "address",
          "name": "_to",
          "type": "address"
        },
        {
          "indexed": true,
          "internalType": "uint256",
          "name": "_tokenId",
          "type": "uint256"
        }
      ],
      "name": "Transfer",
      "type": "event"
    },
    {
      "inputs": [
        {
          "internalType": "address",
          "name": "to",
          "type": "address"
        },
        {
          "internalType": "uint256",
          "name": "tokenId",
          "type": "uint256"
        }
      ],
      "name": "approve",
      "outputs": [],
      "stateMutability": "nonpayable",
      "type": "function"
    },
    {
      "inputs": [
        {
          "internalType": "address",
          "name": "owner",
          "type": "address"
        }
      ],
      "name": "balanceOf",
      "outputs": [
        {
          "internalType": "uint256",
          "name": "",
          "type": "uint256"
        }
      ],
      "stateMutability": "view",
      "type": "function"
    },
    {
      "inputs": [
        {
          "internalType": "uint256",
          "name": "tokenId",
          "type": "uint256"
        }
      ],
      "name": "getApproved",
      "outputs": [
        {
          "internalType": "address",
          "name": "",
          "type": "address"
        }
      ],
      "stateMutability": "view",
      "type": "function"
    },
    {
      "inputs": [],
      "name": "name",
      "outputs": [
        {
          "internalType": "string",
          "name": "",
          "type": "string"
        }
      ],
      "stateMutability": "view",
      "type": "function"
    },
    {
      "inputs": [
        {
          "internalType": "uint256",
          "name": "token",
          "type": "uint256"
        }
      ],
      "name": "ownerOf",
      "outputs": [
        {
          "internalType": "address",
          "name": "",
          "type": "address"
        }
      ],
      "stateMutability": "view",
      "type": "function"
    },
    {
      "inputs": [
        {
          "internalType": "bytes4",
          "name": "interfaceId",
          "type": "bytes4"
        }
      ],
      "name": "supportsInterface",
      "outputs": [
        {
          "internalType": "bool",
          "name": "",
          "type": "bool"
        }
      ],
      "stateMutability": "view",
      "type": "function"
    },
    {
      "inputs": [],
      "name": "symbol",
      "outputs": [
        {
          "internalType": "string",
          "name": "",
          "type": "string"
        }
      ],
      "stateMutability": "view",
      "type": "function"
    },
    {
      "inputs": [
        {
          "internalType": "uint256",
          "name": "index",
          "type": "uint256"
        }
      ],
      "name": "tokenByIndex",
      "outputs": [
        {
          "internalType": "uint256",
          "name": "",
          "type": "uint256"
        }
      ],
      "stateMutability": "view",
      "type": "function"
    },
    {
      "inputs": [
        {
          "internalType": "address",
          "name": "owner",
          "type": "address"
        },
        {
          "internalType": "uint256",
          "name": "index",
          "type": "uint256"
        }
      ],
      "name": "tokenOfOwnerByIndex",
      "outputs": [
        {
          "internalType": "uint256",
          "name": "",
          "type": "uint256"
        }
      ],
      "stateMutability": "view",
      "type": "function"
    },
    {
      "inputs": [],
      "name": "totalSupply",
      "outputs": [
        {
          "internalType": "uint256",
          "name": "",
          "type": "uint256"
        }
      ],
      "stateMutability": "view",
      "type": "function"
    },
    {
      "inputs": [
        {
          "internalType": "address",
          "name": "from",
          "type": "address"
        },
        {
          "internalType": "address",
          "name": "to",
          "type": "address"
        },
        {
          "internalType": "uint256",
          "name": "tokenId",
          "type": "uint256"
        }
      ],
      "name": "transferFrom",
      "outputs": [],
      "stateMutability": "nonpayable",
      "type": "function"
    }
  ],
  "bytecode": "0x60806040523480156200001157600080fd5b5060405162001a2138038062001a218339818101604052810190620000379190620004cf565b81816200006a7f70a3e9da4957150b8640beae7379e7ac568e876a39c126327df618b9e3684edb620001e360201b60201c565b620000bd7f13b182f4c0e5b2efbac0efe6cf6d756c8b89f4b79c5707a043ed9ea740574ee97f7feaf19471f34a12a7eaf32d5f3090aa2260ea8624dc8a138e74e0bf0f62307618620001e360201b60201c565b8160019080519060200190620000d592919062000282565b508060029080519060200190620000ee92919062000282565b505050620001667f22c82707ba960a14c7592ffb6b8cfaa073fed0048a84cc7fa41f6b5bd8e7f2e47f3a6eb71757dfc6e784c1459d26270140c2c147d95ca985c80026fc5301c3eca17faec5ad6393e26684e060a6dfb8b1a3519c3965e5d2de3d244418a4151a7284311818620001e360201b60201c565b620001db7f8230223f691b981717299fae9549350a0d894555723531f02108b1f522c1a7977f6da5e1284143cdd2d15038a59bde3be031250f00291d64494c12d967b3a4e0c37fc53637662700e6c65104059db8bba34439e0c32483ab7c34e3ccae52c73954951818620001e360201b60201c565b5050620005b8565b63ffffffff60e01b817bffffffffffffffffffffffffffffffffffffffffffffffffffffffff1916036200021657600080fd5b6001600080837bffffffffffffffffffffffffffffffffffffffffffffffffffffffff19167bffffffffffffffffffffffffffffffffffffffffffffffffffffffff1916815260200190815260200160002060006101000a81548160ff02191690831515021790555050565b828054620002909062000583565b90600052602060002090601f016020900481019282620002b4576000855562000300565b82601f10620002cf57805160ff191683800117855562000300565b8280016001018555821562000300579182015b82811115620002ff578251825591602001919060010190620002e2565b5b5090506200030f919062000313565b5090565b5b808211156200032e57600081600090555060010162000314565b5090565b6000604051905090565b600080fd5b600080fd5b600080fd5b600080fd5b6000601f19601f8301169050919050565b7f4e487b7100000000000000000000000000000000000000000000000000000000600052604160045260246000fd5b6200039b8262000350565b810181811067ffffffffffffffff82111715620003bd57620003bc62000361565b5b80604052505050565b6000620003d262000332565b9050620003e0828262000390565b919050565b600067ffffffffffffffff82111562000403576200040262000361565b5b6200040e8262000350565b9050602081019050919050565b60005b838110156200043b5780820151818401526020810190506200041e565b838111156200044b576000848401525b50505050565b6000620004686200046284620003e5565b620003c6565b9050828152602081018484840111156200048757620004866200034b565b5b620004948482856200041b565b509392505050565b600082601f830112620004b457620004b362000346565b5b8151620004c684826020860162000451565b91505092915050565b60008060408385031215620004e957620004e86200033c565b5b600083015167ffffffffffffffff8111156200050a576200050962000341565b5b62000518858286016200049c565b925050602083015167ffffffffffffffff8111156200053c576200053b62000341565b5b6200054a858286016200049c565b9150509250929050565b7f4e487b7100000000000000000000000000000000000000000000000000000000600052602260045260246000fd5b600060028204905060018216806200059c57607f821691505b602082108103620005b257620005b162000554565b5b50919050565b61145980620005c86000396000f3fe608060405234801561001057600080fd5b50600436106100a95760003560e01c806323b872dd1161007157806323b872dd146101665780632f745c59146101825780634f6ccce7146101b25780636352211e146101e257806370a082311461021257806395d89b4114610242576100a9565b806301ffc9a7146100ae57806306fdde03146100de578063081812fc146100fc578063095ea7b31461012c57806318160ddd14610148575b600080fd5b6100c860048036038101906100c39190610cce565b610260565b6040516100d59190610d16565b60405180910390f35b6100e66102c7565b6040516100f39190610dca565b60405180910390f35b61011660048036038101906101119190610e22565b610359565b6040516101239190610e90565b60405180910390f35b61014660048036038101906101419190610ed7565b6103a8565b005b6101506104eb565b60405161015d9190610f26565b60405180910390f35b610180600480360381019061017b9190610f41565b6104f8565b005b61019c60048036038101906101979190610ed7565b61051b565b6040516101a99190610f26565b60405180910390f35b6101cc60048036038101906101c79190610e22565b6105cb565b6040516101d99190610f26565b60405180910390f35b6101fc60048036038101906101f79190610e22565b610632565b6040516102099190610e90565b60405180910390f35b61022c60048036038101906102279190610f94565b6106e3565b6040516102399190610f26565b60405180910390f35b61024a6107a1565b6040516102579190610dca565b60405180910390f35b6000806000837bffffffffffffffffffffffffffffffffffffffffffffffffffffffff19167bffffffffffffffffffffffffffffffffffffffffffffffffffffffff1916815260200190815260200160002060009054906101000a900460ff169050919050565b6060600180546102d690610ff0565b80601f016020809104026020016040519081016040528092919081815260200182805461030290610ff0565b801561034f5780601f106103245761010080835404028352916020019161034f565b820191906000526020600020905b81548152906001019060200180831161033257829003601f168201915b5050505050905090565b600061036482610833565b61036d57600080fd5b6005600083815260200190815260200160002060009054906101000a900473ffffffffffffffffffffffffffffffffffffffff169050919050565b8173ffffffffffffffffffffffffffffffffffffffff166103c882610632565b73ffffffffffffffffffffffffffffffffffffffff16036103e857600080fd5b6103f181610632565b73ffffffffffffffffffffffffffffffffffffffff163373ffffffffffffffffffffffffffffffffffffffff161461042857600080fd5b816005600083815260200190815260200160002060006101000a81548173ffffffffffffffffffffffffffffffffffffffff021916908373ffffffffffffffffffffffffffffffffffffffff16021790555061048381610359565b50808273ffffffffffffffffffffffffffffffffffffffff166104a583610632565b73ffffffffffffffffffffffffffffffffffffffff167f8c5be1e5ebec7d5bd14f71427d1e84f3dd0314c0f7b2291e5b200ac8c7c3b92560405160405180910390a45050565b6000600680549050905090565b61050233826108a5565b61050b57600080fd5b61051683838361093c565b505050565b6000610526836106e3565b8210610567576040517f08c379a000000000000000000000000000000000000000000000000000000000815260040161055e9061106d565b60405180910390fd5b600860008473ffffffffffffffffffffffffffffffffffffffff1673ffffffffffffffffffffffffffffffffffffffff16815260200190815260200160002082815481106105b8576105b761108d565b5b9060005260206000200154905092915050565b60006105d56104eb565b821115610617576040517f08c379a000000000000000000000000000000000000000000000000000000000815260040161060e9061106d565b60405180910390fd5b60076000838152602001908152602001600020549050919050565b6000806003600084815260200190815260200160002060009054906101000a900473ffffffffffffffffffffffffffffffffffffffff169050600073ffffffffffffffffffffffffffffffffffffffff168173ffffffffffffffffffffffffffffffffffffffff16036106da576040517f08c379a00000000000000000000000000000000000000000000000000000000081526004016106d190611108565b60405180910390fd5b80915050919050565b60008073ffffffffffffffffffffffffffffffffffffffff168273ffffffffffffffffffffffffffffffffffffffff1603610753576040517f08c379a000000000000000000000000000000000000000000000000000000000815260040161074a90611174565b60405180910390fd5b61079a600460008473ffffffffffffffffffffffffffffffffffffffff1673ffffffffffffffffffffffffffffffffffffffff168152602001908152602001600020610b61565b9050919050565b6060600280546107b090610ff0565b80601f01602080910402602001604051908101604052809291908181526020018280546107dc90610ff0565b80156108295780601f106107fe57610100808354040283529160200191610829565b820191906000526020600020905b81548152906001019060200180831161080c57829003601f168201915b5050505050905090565b6000806003600084815260200190815260200160002060009054906101000a900473ffffffffffffffffffffffffffffffffffffffff169050600073ffffffffffffffffffffffffffffffffffffffff168173ffffffffffffffffffffffffffffffffffffffff161415915050919050565b60006108b082610833565b6108b957600080fd5b60006108c483610632565b90508073ffffffffffffffffffffffffffffffffffffffff168473ffffffffffffffffffffffffffffffffffffffff16148061093357508373ffffffffffffffffffffffffffffffffffffffff1661091b84610359565b73ffffffffffffffffffffffffffffffffffffffff16145b91505092915050565b600073ffffffffffffffffffffffffffffffffffffffff168273ffffffffffffffffffffffffffffffffffffffff16036109ab576040517f08c379a00000000000000000000000000000000000000000000000000000000081526004016109a2906111e0565b60405180910390fd5b8273ffffffffffffffffffffffffffffffffffffffff166109cb82610632565b73ffffffffffffffffffffffffffffffffffffffff1614610a21576040517f08c379a0000000000000000000000000000000000000000000000000000000008152600401610a1890611272565b60405180910390fd5b816003600083815260200190815260200160002060006101000a81548173ffffffffffffffffffffffffffffffffffffffff021916908373ffffffffffffffffffffffffffffffffffffffff160217905550610aba600460008573ffffffffffffffffffffffffffffffffffffffff1673ffffffffffffffffffffffffffffffffffffffff168152602001908152602001600020610b6f565b610b01600460008473ffffffffffffffffffffffffffffffffffffffff1673ffffffffffffffffffffffffffffffffffffffff168152602001908152602001600020610b92565b808273ffffffffffffffffffffffffffffffffffffffff168473ffffffffffffffffffffffffffffffffffffffff167fddf252ad1be2c89b69c2b068fc378daa952ba7f163c4a11628f55a4df523b3ef60405160405180910390a4505050565b600081600001549050919050565b610b8760018260000154610bb590919063ffffffff16565b816000018190555050565b610baa60018260000154610c1390919063ffffffff16565b816000018190555050565b6000808284610bc491906112c1565b905083831115610c09576040517f08c379a0000000000000000000000000000000000000000000000000000000008152600401610c0090611341565b60405180910390fd5b8091505092915050565b6000808284610c229190611361565b905083811015610c67576040517f08c379a0000000000000000000000000000000000000000000000000000000008152600401610c5e90611403565b60405180910390fd5b8091505092915050565b600080fd5b60007fffffffff0000000000000000000000000000000000000000000000000000000082169050919050565b610cab81610c76565b8114610cb657600080fd5b50565b600081359050610cc881610ca2565b92915050565b600060208284031215610ce457610ce3610c71565b5b6000610cf284828501610cb9565b91505092915050565b60008115159050919050565b610d1081610cfb565b82525050565b6000602082019050610d2b6000830184610d07565b92915050565b600081519050919050565b600082825260208201905092915050565b60005b83811015610d6b578082015181840152602081019050610d50565b83811115610d7a576000848401525b50505050565b6000601f19601f8301169050919050565b6000610d9c82610d31565b610da68185610d3c565b9350610db6818560208601610d4d565b610dbf81610d80565b840191505092915050565b60006020820190508181036000830152610de48184610d91565b905092915050565b6000819050919050565b610dff81610dec565b8114610e0a57600080fd5b50565b600081359050610e1c81610df6565b92915050565b600060208284031215610e3857610e37610c71565b5b6000610e4684828501610e0d565b91505092915050565b600073ffffffffffffffffffffffffffffffffffffffff82169050919050565b6000610e7a82610e4f565b9050919050565b610e8a81610e6f565b82525050565b6000602082019050610ea56000830184610e81565b92915050565b610eb481610e6f565b8114610ebf57600080fd5b50565b600081359050610ed181610eab565b92915050565b60008060408385031215610eee57610eed610c71565b5b6000610efc85828601610ec2565b9250506020610f0d85828601610e0d565b9150509250929050565b610f2081610dec565b82525050565b6000602082019050610f3b6000830184610f17565b92915050565b600080600060608486031215610f5a57610f59610c71565b5b6000610f6886828701610ec2565b9350506020610f7986828701610ec2565b9250506040610f8a86828701610e0d565b9150509250925092565b600060208284031215610faa57610fa9610c71565b5b6000610fb884828501610ec2565b91505092915050565b7f4e487b7100000000000000000000000000000000000000000000000000000000600052602260045260246000fd5b6000600282049050600182168061100857607f821691505b60208210810361101b5761101a610fc1565b5b50919050565b7f696e646578206f7574206f6620626f756e640000000000000000000000000000600082015250565b6000611057601283610d3c565b915061106282611021565b602082019050919050565b600060208201905081810360008301526110868161104a565b9050919050565b7f4e487b7100000000000000000000000000000000000000000000000000000000600052603260045260246000fd5b7f6f776e6572206164647265737320646f6573206e6f7420657869737400000000600082015250565b60006110f2601c83610d3c565b91506110fd826110bc565b602082019050919050565b60006020820190508181036000830152611121816110e5565b9050919050565b7f4552433732313a6164647265737320646f6573206e6f74206578697374000000600082015250565b600061115e601d83610d3c565b915061116982611128565b602082019050919050565b6000602082019050818103600083015261118d81611151565b9050919050565b7f696e76616c696420616464726573730000000000000000000000000000000000600082015250565b60006111ca600f83610d3c565b91506111d582611194565b602082019050919050565b600060208201905081810360008301526111f9816111bd565b9050919050565b7f746f6b656e20646f6573206e6f742062656c6f6e6720746f207468697320616460008201527f6472657373000000000000000000000000000000000000000000000000000000602082015250565b600061125c602583610d3c565b915061126782611200565b604082019050919050565b6000602082019050818103600083015261128b8161124f565b9050919050565b7f4e487b7100000000000000000000000000000000000000000000000000000000600052601160045260246000fd5b60006112cc82610dec565b91506112d783610dec565b9250828210156112ea576112e9611292565b5b828203905092915050565b7f53616665206d61746820636f6e646974696f6e206f766572666c6f7700000000600082015250565b600061132b601c83610d3c565b9150611336826112f5565b602082019050919050565b6000602082019050818103600083015261135a8161131e565b9050919050565b600061136c82610dec565b915061137783610dec565b9250827fffffffffffffffffffffffffffffffffffffffffffffffffffffffffffffffff038211156113ac576113ab611292565b5b828201905092915050565b7f53616665204d61746820636f6e646974696f6e206f766572666c6f7700000000600082015250565b60006113ed601c83610d3c565b91506113f8826113b7565b602082019050919050565b6000602082019050818103600083015261141c816113e0565b905091905056fea26469706673582212204c1bbae092a5190978d749d9c24d65f0731faf3a2147d755b6538ab8099def0b64736f6c634300080d0033",
  "immutableReferences": {},
  "source": "//SPDX-License-Identifier:MIT\npragma solidity ^0.8.0;\nimport './ERC721Metadata.sol';\n\nimport './ERC721Enumerable.sol';\n\ncontract ERC721Connector is ERC721Metadata,ERC721Enumerable\n{\nconstructor(string memory name,string memory symbol) ERC721Metadata(name,symbol)\n{\n    \n}\n}",
  "sourcePath": "/home/unthinkable-lap-0315/Downloads/nft-marketplace-starter-kit/src/contracts/ERC721Connector.sol",
  "compiler": {
    "name": "solc",
    "version": "0.8.13+commit.abaa5c0e.Emscripten.clang"
  },
  "schemaVersion": "3.4.6",
  "updatedAt": "2022-04-04T14:36:24.469Z",
  "devdoc": {
    "kind": "dev",
    "methods": {},
    "version": 1
  },
  "userdoc": {
    "kind": "user",
    "methods": {},
    "version": 1
  }
}