{
  "contractName": "ERC721",
  "abi": [
    {
      "inputs": [],
      "stateMutability": "nonpayable",
      "type": "constructor"
    },
    {
      "anonymous": false,
      "inputs": [
        {
          "indexed": true,
          "internalType": "address",
          "name": "owner",
          "type": "address"
        },
        {
          "indexed": true,
          "internalType": "address",
          "name": "approved",
          "type": "address"
        },
        {
          "indexed": true,
          "internalType": "uint256",
          "name": "tokenId",
          "type": "uint256"
        }
      ],
      "name": "Approval",
      "type": "event"
    },
    {
      "anonymous": false,
      "inputs": [
        {
          "indexed": true,
          "internalType": "address",
          "name": "_from",
          "type": "address"
        },
        {
          "indexed": true,
          "internalType": "address",
          "name": "_to",
          "type": "address"
        },
        {
          "indexed": true,
          "internalType": "uint256",
          "name": "_tokenId",
          "type": "uint256"
        }
      ],
      "name": "Transfer",
      "type": "event"
    },
    {
      "inputs": [
        {
          "internalType": "bytes4",
          "name": "interfaceId",
          "type": "bytes4"
        }
      ],
      "name": "supportsInterface",
      "outputs": [
        {
          "internalType": "bool",
          "name": "",
          "type": "bool"
        }
      ],
      "stateMutability": "view",
      "type": "function"
    },
    {
      "inputs": [
        {
          "internalType": "address",
          "name": "owner",
          "type": "address"
        }
      ],
      "name": "balanceOf",
      "outputs": [
        {
          "internalType": "uint256",
          "name": "",
          "type": "uint256"
        }
      ],
      "stateMutability": "view",
      "type": "function"
    },
    {
      "inputs": [
        {
          "internalType": "uint256",
          "name": "token",
          "type": "uint256"
        }
      ],
      "name": "ownerOf",
      "outputs": [
        {
          "internalType": "address",
          "name": "",
          "type": "address"
        }
      ],
      "stateMutability": "view",
      "type": "function"
    },
    {
      "inputs": [
        {
          "internalType": "address",
          "name": "from",
          "type": "address"
        },
        {
          "internalType": "address",
          "name": "to",
          "type": "address"
        },
        {
          "internalType": "uint256",
          "name": "tokenId",
          "type": "uint256"
        }
      ],
      "name": "transferFrom",
      "outputs": [],
      "stateMutability": "nonpayable",
      "type": "function"
    },
    {
      "inputs": [
        {
          "internalType": "uint256",
          "name": "tokenId",
          "type": "uint256"
        }
      ],
      "name": "getApproved",
      "outputs": [
        {
          "internalType": "address",
          "name": "",
          "type": "address"
        }
      ],
      "stateMutability": "view",
      "type": "function"
    },
    {
      "inputs": [
        {
          "internalType": "address",
          "name": "to",
          "type": "address"
        },
        {
          "internalType": "uint256",
          "name": "tokenId",
          "type": "uint256"
        }
      ],
      "name": "approve",
      "outputs": [],
      "stateMutability": "nonpayable",
      "type": "function"
    }
  ],
  "bytecode": "0x608060405234801561001057600080fd5b506100407f70a3e9da4957150b8640beae7379e7ac568e876a39c126327df618b9e3684edb6100b860201b60201c565b6100b37f22c82707ba960a14c7592ffb6b8cfaa073fed0048a84cc7fa41f6b5bd8e7f2e47f3a6eb71757dfc6e784c1459d26270140c2c147d95ca985c80026fc5301c3eca17faec5ad6393e26684e060a6dfb8b1a3519c3965e5d2de3d244418a4151a72843118186100b860201b60201c565b610156565b63ffffffff60e01b817bffffffffffffffffffffffffffffffffffffffffffffffffffffffff1916036100ea57600080fd5b6001600080837bffffffffffffffffffffffffffffffffffffffffffffffffffffffff19167bffffffffffffffffffffffffffffffffffffffffffffffffffffffff1916815260200190815260200160002060006101000a81548160ff02191690831515021790555050565b610f6b806101656000396000f3fe608060405234801561001057600080fd5b50600436106100625760003560e01c806301ffc9a714610067578063081812fc14610097578063095ea7b3146100c757806323b872dd146100e35780636352211e146100ff57806370a082311461012f575b600080fd5b610081600480360381019061007c9190610985565b61015f565b60405161008e91906109cd565b60405180910390f35b6100b160048036038101906100ac9190610a1e565b6101c6565b6040516100be9190610a8c565b60405180910390f35b6100e160048036038101906100dc9190610ad3565b610215565b005b6100fd60048036038101906100f89190610b13565b610358565b005b61011960048036038101906101149190610a1e565b61037b565b6040516101269190610a8c565b60405180910390f35b61014960048036038101906101449190610b66565b61042c565b6040516101569190610ba2565b60405180910390f35b6000806000837bffffffffffffffffffffffffffffffffffffffffffffffffffffffff19167bffffffffffffffffffffffffffffffffffffffffffffffffffffffff1916815260200190815260200160002060009054906101000a900460ff169050919050565b60006101d1826104ea565b6101da57600080fd5b6003600083815260200190815260200160002060009054906101000a900473ffffffffffffffffffffffffffffffffffffffff169050919050565b8173ffffffffffffffffffffffffffffffffffffffff166102358261037b565b73ffffffffffffffffffffffffffffffffffffffff160361025557600080fd5b61025e8161037b565b73ffffffffffffffffffffffffffffffffffffffff163373ffffffffffffffffffffffffffffffffffffffff161461029557600080fd5b816003600083815260200190815260200160002060006101000a81548173ffffffffffffffffffffffffffffffffffffffff021916908373ffffffffffffffffffffffffffffffffffffffff1602179055506102f0816101c6565b50808273ffffffffffffffffffffffffffffffffffffffff166103128361037b565b73ffffffffffffffffffffffffffffffffffffffff167f8c5be1e5ebec7d5bd14f71427d1e84f3dd0314c0f7b2291e5b200ac8c7c3b92560405160405180910390a45050565b610362338261055c565b61036b57600080fd5b6103768383836105f3565b505050565b6000806001600084815260200190815260200160002060009054906101000a900473ffffffffffffffffffffffffffffffffffffffff169050600073ffffffffffffffffffffffffffffffffffffffff168173ffffffffffffffffffffffffffffffffffffffff1603610423576040517f08c379a000000000000000000000000000000000000000000000000000000000815260040161041a90610c1a565b60405180910390fd5b80915050919050565b60008073ffffffffffffffffffffffffffffffffffffffff168273ffffffffffffffffffffffffffffffffffffffff160361049c576040517f08c379a000000000000000000000000000000000000000000000000000000000815260040161049390610c86565b60405180910390fd5b6104e3600260008473ffffffffffffffffffffffffffffffffffffffff1673ffffffffffffffffffffffffffffffffffffffff168152602001908152602001600020610818565b9050919050565b6000806001600084815260200190815260200160002060009054906101000a900473ffffffffffffffffffffffffffffffffffffffff169050600073ffffffffffffffffffffffffffffffffffffffff168173ffffffffffffffffffffffffffffffffffffffff161415915050919050565b6000610567826104ea565b61057057600080fd5b600061057b8361037b565b90508073ffffffffffffffffffffffffffffffffffffffff168473ffffffffffffffffffffffffffffffffffffffff1614806105ea57508373ffffffffffffffffffffffffffffffffffffffff166105d2846101c6565b73ffffffffffffffffffffffffffffffffffffffff16145b91505092915050565b600073ffffffffffffffffffffffffffffffffffffffff168273ffffffffffffffffffffffffffffffffffffffff1603610662576040517f08c379a000000000000000000000000000000000000000000000000000000000815260040161065990610cf2565b60405180910390fd5b8273ffffffffffffffffffffffffffffffffffffffff166106828261037b565b73ffffffffffffffffffffffffffffffffffffffff16146106d8576040517f08c379a00000000000000000000000000000000000000000000000000000000081526004016106cf90610d84565b60405180910390fd5b816001600083815260200190815260200160002060006101000a81548173ffffffffffffffffffffffffffffffffffffffff021916908373ffffffffffffffffffffffffffffffffffffffff160217905550610771600260008573ffffffffffffffffffffffffffffffffffffffff1673ffffffffffffffffffffffffffffffffffffffff168152602001908152602001600020610826565b6107b8600260008473ffffffffffffffffffffffffffffffffffffffff1673ffffffffffffffffffffffffffffffffffffffff168152602001908152602001600020610849565b808273ffffffffffffffffffffffffffffffffffffffff168473ffffffffffffffffffffffffffffffffffffffff167fddf252ad1be2c89b69c2b068fc378daa952ba7f163c4a11628f55a4df523b3ef60405160405180910390a4505050565b600081600001549050919050565b61083e6001826000015461086c90919063ffffffff16565b816000018190555050565b610861600182600001546108ca90919063ffffffff16565b816000018190555050565b600080828461087b9190610dd3565b9050838311156108c0576040517f08c379a00000000000000000000000000000000000000000000000000000000081526004016108b790610e53565b60405180910390fd5b8091505092915050565b60008082846108d99190610e73565b90508381101561091e576040517f08c379a000000000000000000000000000000000000000000000000000000000815260040161091590610f15565b60405180910390fd5b8091505092915050565b600080fd5b60007fffffffff0000000000000000000000000000000000000000000000000000000082169050919050565b6109628161092d565b811461096d57600080fd5b50565b60008135905061097f81610959565b92915050565b60006020828403121561099b5761099a610928565b5b60006109a984828501610970565b91505092915050565b60008115159050919050565b6109c7816109b2565b82525050565b60006020820190506109e260008301846109be565b92915050565b6000819050919050565b6109fb816109e8565b8114610a0657600080fd5b50565b600081359050610a18816109f2565b92915050565b600060208284031215610a3457610a33610928565b5b6000610a4284828501610a09565b91505092915050565b600073ffffffffffffffffffffffffffffffffffffffff82169050919050565b6000610a7682610a4b565b9050919050565b610a8681610a6b565b82525050565b6000602082019050610aa16000830184610a7d565b92915050565b610ab081610a6b565b8114610abb57600080fd5b50565b600081359050610acd81610aa7565b92915050565b60008060408385031215610aea57610ae9610928565b5b6000610af885828601610abe565b9250506020610b0985828601610a09565b9150509250929050565b600080600060608486031215610b2c57610b2b610928565b5b6000610b3a86828701610abe565b9350506020610b4b86828701610abe565b9250506040610b5c86828701610a09565b9150509250925092565b600060208284031215610b7c57610b7b610928565b5b6000610b8a84828501610abe565b91505092915050565b610b9c816109e8565b82525050565b6000602082019050610bb76000830184610b93565b92915050565b600082825260208201905092915050565b7f6f776e6572206164647265737320646f6573206e6f7420657869737400000000600082015250565b6000610c04601c83610bbd565b9150610c0f82610bce565b602082019050919050565b60006020820190508181036000830152610c3381610bf7565b9050919050565b7f4552433732313a6164647265737320646f6573206e6f74206578697374000000600082015250565b6000610c70601d83610bbd565b9150610c7b82610c3a565b602082019050919050565b60006020820190508181036000830152610c9f81610c63565b9050919050565b7f696e76616c696420616464726573730000000000000000000000000000000000600082015250565b6000610cdc600f83610bbd565b9150610ce782610ca6565b602082019050919050565b60006020820190508181036000830152610d0b81610ccf565b9050919050565b7f746f6b656e20646f6573206e6f742062656c6f6e6720746f207468697320616460008201527f6472657373000000000000000000000000000000000000000000000000000000602082015250565b6000610d6e602583610bbd565b9150610d7982610d12565b604082019050919050565b60006020820190508181036000830152610d9d81610d61565b9050919050565b7f4e487b7100000000000000000000000000000000000000000000000000000000600052601160045260246000fd5b6000610dde826109e8565b9150610de9836109e8565b925082821015610dfc57610dfb610da4565b5b828203905092915050565b7f53616665206d61746820636f6e646974696f6e206f766572666c6f7700000000600082015250565b6000610e3d601c83610bbd565b9150610e4882610e07565b602082019050919050565b60006020820190508181036000830152610e6c81610e30565b9050919050565b6000610e7e826109e8565b9150610e89836109e8565b9250827fffffffffffffffffffffffffffffffffffffffffffffffffffffffffffffffff03821115610ebe57610ebd610da4565b5b828201905092915050565b7f53616665204d61746820636f6e646974696f6e206f766572666c6f7700000000600082015250565b6000610eff601c83610bbd565b9150610f0a82610ec9565b602082019050919050565b60006020820190508181036000830152610f2e81610ef2565b905091905056fea26469706673582212207d35c8d5821cb4868f55a62cebd8132d37ed0a443fac0b7fcd5b14d9c941275d64736f6c634300080d0033",
  "immutableReferences": {},
  "source": "//SPDX-License-Identifier:MIT\npragma solidity ^0.8.0;\n\nimport './ERC165.sol';\nimport './interfaces/IERC721.sol';\nimport './libraries/Counters.sol';\n/*a nft to point to address\nb:keep track of token id\nc:keep track of token owner address to token ids\nd:keep track of how many tokens an owner address has\ne:create event that emits transfer log-contract address,where it is minting to\n*/\ncontract ERC721 is ERC165,IERC721\n{\n    using SafeMath for uint;\n    using Counters for Counters.Counter;\n\n  //  event Transfer(address indexed from,address indexed to,uint indexed tokenId);\n    event Approval(address indexed owner,address indexed approved,uint indexed tokenId);\n\n    \n    //mapping in solidity creates a hash table of key pair value\n    //mapping from token id to owner\n    mapping(uint=>address) private tokenOwner;\n    //mapping from owner to number of token ids\n    mapping(address=>Counters.Counter) private ownedTokensCount;\n    //mapping from token id to approved addresses\n    mapping(uint=>address) private tokenapproved;\n    function _exists(uint tokenId) internal view returns(bool)\n    {\n        //setting the adress of the nft owner to check the mapping of the adress from token id\n        address owner=tokenOwner[tokenId];\n        //returns truthiness ofthe adress is not zero\n        return owner != address(0);\n    }\n\n    function _mint(address to,uint tokenId)  internal virtual{\n        //requires that the addressis not zero\n        require(to != address(0),'ERC721:minting to the zero address is not allowed');\n        //the token does not already exists\n        require(!_exists(tokenId),'ERC721:token already minted');\n        //we are adding a new address with a new id for minting\n        tokenOwner[tokenId]=to;\n        //keeping track of each address thatis minting and adding one\n        ownedTokensCount[to].increment();\n\n\n\n        emit Transfer(address(0),to,tokenId);\n    }\n    constructor()\n   {\n       register(bytes4(keccak256('balanceOf(bytes4')^(keccak256('ownerOf(bytes4)'))^(keccak256('transferFrom(bytes4)'))));\n   }\n\n    function balanceOf(address owner) public override view returns(uint)\n    {\n        require(owner != address(0),'ERC721:address does not exist');\n        return ownedTokensCount[owner].current();\n    }\n\n    function ownerOf(uint token) public override view returns(address)\n    {\n        address owner=tokenOwner[token];\n        require(owner != address(0),'owner address does not exist');\n        return owner;\n    }\n      function _transferFrom(address from,address to,uint tokenId) internal{\n        require(to != address(0),'invalid address');\n        require(ownerOf(tokenId) == from,'token does not belong to this address');\n        tokenOwner[tokenId]=to;\n        ownedTokensCount[from].decrement();\n        ownedTokensCount[to].increment();\n               \n\n        emit Transfer(from,to,tokenId);\n    }\n    function transferFrom(address from,address to,uint tokenId) public  override{\n        require(isapprovedorowner(msg.sender,tokenId));\n        _transferFrom(from,to,tokenId);\n    }\n    function getApproved(uint tokenId) public view returns(address)\n    {\n        require(_exists(tokenId));\n        return tokenapproved[tokenId];\n    }\n\n    //require that the person approving is the owner\n    //we are approving an address to a token\n    //require that we can approve sending tokens of the owner to the current caller\n    //update the map of the approval addresses\n    function approve(address to,uint tokenId) public{\n        require(ownerOf(tokenId) != to);\n        require(msg.sender == ownerOf(tokenId));\n        tokenapproved[tokenId]=to;\n        getApproved(tokenId);\n\n        emit Approval(ownerOf(tokenId),to,tokenId);\n    }\n\n    function isapprovedorowner(address spender,uint tokenId) internal view returns(bool)\n    {\n        require(_exists(tokenId));\n        address owner=ownerOf(tokenId);\n        return (spender==owner || getApproved(tokenId)==spender) ;\n    }\n}",
  "sourcePath": "/home/unthinkable-lap-0315/Downloads/nft-marketplace-starter-kit/src/contracts/ERC721.sol",
  "compiler": {
    "name": "solc",
    "version": "0.8.13+commit.abaa5c0e.Emscripten.clang"
  },
  "schemaVersion": "3.4.6",
  "updatedAt": "2022-04-04T14:36:24.458Z",
  "devdoc": {
    "kind": "dev",
    "methods": {},
    "version": 1
  },
  "userdoc": {
    "kind": "user",
    "methods": {},
    "version": 1
  }
}