{
  "contractName": "KryptoBirdz",
  "abi": [
    {
      "inputs": [],
      "stateMutability": "nonpayable",
      "type": "constructor"
    },
    {
      "anonymous": false,
      "inputs": [
        {
          "indexed": true,
          "internalType": "address",
          "name": "owner",
          "type": "address"
        },
        {
          "indexed": true,
          "internalType": "address",
          "name": "approved",
          "type": "address"
        },
        {
          "indexed": true,
          "internalType": "uint256",
          "name": "tokenId",
          "type": "uint256"
        }
      ],
      "name": "Approval",
      "type": "event"
    },
    {
      "anonymous": false,
      "inputs": [
        {
          "indexed": true,
          "internalType": "address",
          "name": "_from",
          "type": "address"
        },
        {
          "indexed": true,
          "internalType": "address",
          "name": "_to",
          "type": "address"
        },
        {
          "indexed": true,
          "internalType": "uint256",
          "name": "_tokenId",
          "type": "uint256"
        }
      ],
      "name": "Transfer",
      "type": "event"
    },
    {
      "inputs": [
        {
          "internalType": "uint256",
          "name": "",
          "type": "uint256"
        }
      ],
      "name": "KryptoBird",
      "outputs": [
        {
          "internalType": "string",
          "name": "",
          "type": "string"
        }
      ],
      "stateMutability": "view",
      "type": "function",
      "constant": true
    },
    {
      "inputs": [
        {
          "internalType": "address",
          "name": "to",
          "type": "address"
        },
        {
          "internalType": "uint256",
          "name": "tokenId",
          "type": "uint256"
        }
      ],
      "name": "approve",
      "outputs": [],
      "stateMutability": "nonpayable",
      "type": "function"
    },
    {
      "inputs": [
        {
          "internalType": "address",
          "name": "owner",
          "type": "address"
        }
      ],
      "name": "balanceOf",
      "outputs": [
        {
          "internalType": "uint256",
          "name": "",
          "type": "uint256"
        }
      ],
      "stateMutability": "view",
      "type": "function",
      "constant": true
    },
    {
      "inputs": [
        {
          "internalType": "uint256",
          "name": "tokenId",
          "type": "uint256"
        }
      ],
      "name": "getApproved",
      "outputs": [
        {
          "internalType": "address",
          "name": "",
          "type": "address"
        }
      ],
      "stateMutability": "view",
      "type": "function",
      "constant": true
    },
    {
      "inputs": [],
      "name": "name",
      "outputs": [
        {
          "internalType": "string",
          "name": "",
          "type": "string"
        }
      ],
      "stateMutability": "view",
      "type": "function",
      "constant": true
    },
    {
      "inputs": [
        {
          "internalType": "uint256",
          "name": "token",
          "type": "uint256"
        }
      ],
      "name": "ownerOf",
      "outputs": [
        {
          "internalType": "address",
          "name": "",
          "type": "address"
        }
      ],
      "stateMutability": "view",
      "type": "function",
      "constant": true
    },
    {
      "inputs": [
        {
          "internalType": "bytes4",
          "name": "interfaceId",
          "type": "bytes4"
        }
      ],
      "name": "supportsInterface",
      "outputs": [
        {
          "internalType": "bool",
          "name": "",
          "type": "bool"
        }
      ],
      "stateMutability": "view",
      "type": "function",
      "constant": true
    },
    {
      "inputs": [],
      "name": "symbol",
      "outputs": [
        {
          "internalType": "string",
          "name": "",
          "type": "string"
        }
      ],
      "stateMutability": "view",
      "type": "function",
      "constant": true
    },
    {
      "inputs": [
        {
          "internalType": "uint256",
          "name": "index",
          "type": "uint256"
        }
      ],
      "name": "tokenByIndex",
      "outputs": [
        {
          "internalType": "uint256",
          "name": "",
          "type": "uint256"
        }
      ],
      "stateMutability": "view",
      "type": "function",
      "constant": true
    },
    {
      "inputs": [
        {
          "internalType": "address",
          "name": "owner",
          "type": "address"
        },
        {
          "internalType": "uint256",
          "name": "index",
          "type": "uint256"
        }
      ],
      "name": "tokenOfOwnerByIndex",
      "outputs": [
        {
          "internalType": "uint256",
          "name": "",
          "type": "uint256"
        }
      ],
      "stateMutability": "view",
      "type": "function",
      "constant": true
    },
    {
      "inputs": [],
      "name": "totalSupply",
      "outputs": [
        {
          "internalType": "uint256",
          "name": "",
          "type": "uint256"
        }
      ],
      "stateMutability": "view",
      "type": "function",
      "constant": true
    },
    {
      "inputs": [
        {
          "internalType": "address",
          "name": "from",
          "type": "address"
        },
        {
          "internalType": "address",
          "name": "to",
          "type": "address"
        },
        {
          "internalType": "uint256",
          "name": "tokenId",
          "type": "uint256"
        }
      ],
      "name": "transferFrom",
      "outputs": [],
      "stateMutability": "nonpayable",
      "type": "function"
    },
    {
      "inputs": [
        {
          "internalType": "string",
          "name": "kryptobird",
          "type": "string"
        }
      ],
      "name": "mint",
      "outputs": [],
      "stateMutability": "nonpayable",
      "type": "function"
    }
  ],
  "bytecode": "0x60806040523480156200001157600080fd5b506040518060400160405280600a81526020017f4b727970746f42697264000000000000000000000000000000000000000000008152506040518060400160405280600681526020017f4b424952445a00000000000000000000000000000000000000000000000000008152508181620000b17f70a3e9da4957150b8640beae7379e7ac568e876a39c126327df618b9e3684edb6200022a60201b60201c565b620001047f13b182f4c0e5b2efbac0efe6cf6d756c8b89f4b79c5707a043ed9ea740574ee97f7feaf19471f34a12a7eaf32d5f3090aa2260ea8624dc8a138e74e0bf0f623076186200022a60201b60201c565b81600190805190602001906200011c929190620002c9565b50806002908051906020019062000135929190620002c9565b505050620001ad7f22c82707ba960a14c7592ffb6b8cfaa073fed0048a84cc7fa41f6b5bd8e7f2e47f3a6eb71757dfc6e784c1459d26270140c2c147d95ca985c80026fc5301c3eca17faec5ad6393e26684e060a6dfb8b1a3519c3965e5d2de3d244418a4151a72843118186200022a60201b60201c565b620002227f8230223f691b981717299fae9549350a0d894555723531f02108b1f522c1a7977f6da5e1284143cdd2d15038a59bde3be031250f00291d64494c12d967b3a4e0c37fc53637662700e6c65104059db8bba34439e0c32483ab7c34e3ccae52c739549518186200022a60201b60201c565b5050620003dd565b63ffffffff60e01b817bffffffffffffffffffffffffffffffffffffffffffffffffffffffff1916036200025d57600080fd5b6001600080837bffffffffffffffffffffffffffffffffffffffffffffffffffffffff19167bffffffffffffffffffffffffffffffffffffffffffffffffffffffff1916815260200190815260200160002060006101000a81548160ff02191690831515021790555050565b828054620002d790620003a8565b90600052602060002090601f016020900481019282620002fb576000855562000347565b82601f106200031657805160ff191683800117855562000347565b8280016001018555821562000347579182015b828111156200034657825182559160200191906001019062000329565b5b5090506200035691906200035a565b5090565b5b80821115620003755760008160009055506001016200035b565b5090565b7f4e487b7100000000000000000000000000000000000000000000000000000000600052602260045260246000fd5b60006002820490506001821680620003c157607f821691505b602082108103620003d757620003d662000379565b5b50919050565b611d4680620003ed6000396000f3fe608060405234801561001057600080fd5b50600436106100cf5760003560e01c80632f745c591161008c57806370a082311161006657806370a082311461023857806395d89b4114610268578063c7f05aa114610286578063d85d3d27146102b6576100cf565b80632f745c59146101a85780634f6ccce7146101d85780636352211e14610208576100cf565b806301ffc9a7146100d457806306fdde0314610104578063081812fc14610122578063095ea7b31461015257806318160ddd1461016e57806323b872dd1461018c575b600080fd5b6100ee60048036038101906100e99190611280565b6102d2565b6040516100fb91906112c8565b60405180910390f35b61010c610339565b604051610119919061137c565b60405180910390f35b61013c600480360381019061013791906113d4565b6103cb565b6040516101499190611442565b60405180910390f35b61016c60048036038101906101679190611489565b61041a565b005b61017661055d565b60405161018391906114d8565b60405180910390f35b6101a660048036038101906101a191906114f3565b61056a565b005b6101c260048036038101906101bd9190611489565b61058d565b6040516101cf91906114d8565b60405180910390f35b6101f260048036038101906101ed91906113d4565b61063d565b6040516101ff91906114d8565b60405180910390f35b610222600480360381019061021d91906113d4565b6106a4565b60405161022f9190611442565b60405180910390f35b610252600480360381019061024d9190611546565b610755565b60405161025f91906114d8565b60405180910390f35b610270610813565b60405161027d919061137c565b60405180910390f35b6102a0600480360381019061029b91906113d4565b6108a5565b6040516102ad919061137c565b60405180910390f35b6102d060048036038101906102cb91906116a8565b610951565b005b6000806000837bffffffffffffffffffffffffffffffffffffffffffffffffffffffff19167bffffffffffffffffffffffffffffffffffffffffffffffffffffffff1916815260200190815260200160002060009054906101000a900460ff169050919050565b60606001805461034890611720565b80601f016020809104026020016040519081016040528092919081815260200182805461037490611720565b80156103c15780601f10610396576101008083540402835291602001916103c1565b820191906000526020600020905b8154815290600101906020018083116103a457829003601f168201915b5050505050905090565b60006103d682610a54565b6103df57600080fd5b6005600083815260200190815260200160002060009054906101000a900473ffffffffffffffffffffffffffffffffffffffff169050919050565b8173ffffffffffffffffffffffffffffffffffffffff1661043a826106a4565b73ffffffffffffffffffffffffffffffffffffffff160361045a57600080fd5b610463816106a4565b73ffffffffffffffffffffffffffffffffffffffff163373ffffffffffffffffffffffffffffffffffffffff161461049a57600080fd5b816005600083815260200190815260200160002060006101000a81548173ffffffffffffffffffffffffffffffffffffffff021916908373ffffffffffffffffffffffffffffffffffffffff1602179055506104f5816103cb565b50808273ffffffffffffffffffffffffffffffffffffffff16610517836106a4565b73ffffffffffffffffffffffffffffffffffffffff167f8c5be1e5ebec7d5bd14f71427d1e84f3dd0314c0f7b2291e5b200ac8c7c3b92560405160405180910390a45050565b6000600680549050905090565b6105743382610ac6565b61057d57600080fd5b610588838383610b5d565b505050565b600061059883610755565b82106105d9576040517f08c379a00000000000000000000000000000000000000000000000000000000081526004016105d09061179d565b60405180910390fd5b600860008473ffffffffffffffffffffffffffffffffffffffff1673ffffffffffffffffffffffffffffffffffffffff168152602001908152602001600020828154811061062a576106296117bd565b5b9060005260206000200154905092915050565b600061064761055d565b821115610689576040517f08c379a00000000000000000000000000000000000000000000000000000000081526004016106809061179d565b60405180910390fd5b60076000838152602001908152602001600020549050919050565b6000806003600084815260200190815260200160002060009054906101000a900473ffffffffffffffffffffffffffffffffffffffff169050600073ffffffffffffffffffffffffffffffffffffffff168173ffffffffffffffffffffffffffffffffffffffff160361074c576040517f08c379a000000000000000000000000000000000000000000000000000000000815260040161074390611838565b60405180910390fd5b80915050919050565b60008073ffffffffffffffffffffffffffffffffffffffff168273ffffffffffffffffffffffffffffffffffffffff16036107c5576040517f08c379a00000000000000000000000000000000000000000000000000000000081526004016107bc906118a4565b60405180910390fd5b61080c600460008473ffffffffffffffffffffffffffffffffffffffff1673ffffffffffffffffffffffffffffffffffffffff168152602001908152602001600020610d82565b9050919050565b60606002805461082290611720565b80601f016020809104026020016040519081016040528092919081815260200182805461084e90611720565b801561089b5780601f106108705761010080835404028352916020019161089b565b820191906000526020600020905b81548152906001019060200180831161087e57829003601f168201915b5050505050905090565b600a81815481106108b557600080fd5b9060005260206000200160009150905080546108d090611720565b80601f01602080910402602001604051908101604052809291908181526020018280546108fc90611720565b80156109495780601f1061091e57610100808354040283529160200191610949565b820191906000526020600020905b81548152906001019060200180831161092c57829003601f168201915b505050505081565b600b816040516109619190611900565b908152602001604051809103902060009054906101000a900460ff16156109bd576040517f08c379a00000000000000000000000000000000000000000000000000000000081526004016109b490611963565b60405180910390fd5b600a819080600181540180825580915050600190039060005260206000200160009091909190915090805190602001906109f8929190611171565b5060006001600a80549050610a0d91906119b2565b9050610a193382610d90565b6001600b83604051610a2b9190611900565b908152602001604051809103902060006101000a81548160ff0219169083151502179055505050565b6000806003600084815260200190815260200160002060009054906101000a900473ffffffffffffffffffffffffffffffffffffffff169050600073ffffffffffffffffffffffffffffffffffffffff168173ffffffffffffffffffffffffffffffffffffffff161415915050919050565b6000610ad182610a54565b610ada57600080fd5b6000610ae5836106a4565b90508073ffffffffffffffffffffffffffffffffffffffff168473ffffffffffffffffffffffffffffffffffffffff161480610b5457508373ffffffffffffffffffffffffffffffffffffffff16610b3c846103cb565b73ffffffffffffffffffffffffffffffffffffffff16145b91505092915050565b600073ffffffffffffffffffffffffffffffffffffffff168273ffffffffffffffffffffffffffffffffffffffff1603610bcc576040517f08c379a0000000000000000000000000000000000000000000000000000000008152600401610bc390611a32565b60405180910390fd5b8273ffffffffffffffffffffffffffffffffffffffff16610bec826106a4565b73ffffffffffffffffffffffffffffffffffffffff1614610c42576040517f08c379a0000000000000000000000000000000000000000000000000000000008152600401610c3990611ac4565b60405180910390fd5b816003600083815260200190815260200160002060006101000a81548173ffffffffffffffffffffffffffffffffffffffff021916908373ffffffffffffffffffffffffffffffffffffffff160217905550610cdb600460008573ffffffffffffffffffffffffffffffffffffffff1673ffffffffffffffffffffffffffffffffffffffff168152602001908152602001600020610db1565b610d22600460008473ffffffffffffffffffffffffffffffffffffffff1673ffffffffffffffffffffffffffffffffffffffff168152602001908152602001600020610dd4565b808273ffffffffffffffffffffffffffffffffffffffff168473ffffffffffffffffffffffffffffffffffffffff167fddf252ad1be2c89b69c2b068fc378daa952ba7f163c4a11628f55a4df523b3ef60405160405180910390a4505050565b600081600001549050919050565b610d9a8282610df7565b610da381610fa8565b610dad8183610ff1565b5050565b610dc9600182600001546110b590919063ffffffff16565b816000018190555050565b610dec6001826000015461111390919063ffffffff16565b816000018190555050565b600073ffffffffffffffffffffffffffffffffffffffff168273ffffffffffffffffffffffffffffffffffffffff1603610e66576040517f08c379a0000000000000000000000000000000000000000000000000000000008152600401610e5d90611b56565b60405180910390fd5b610e6f81610a54565b15610eaf576040517f08c379a0000000000000000000000000000000000000000000000000000000008152600401610ea690611bc2565b60405180910390fd5b816003600083815260200190815260200160002060006101000a81548173ffffffffffffffffffffffffffffffffffffffff021916908373ffffffffffffffffffffffffffffffffffffffff160217905550610f48600460008473ffffffffffffffffffffffffffffffffffffffff1673ffffffffffffffffffffffffffffffffffffffff168152602001908152602001600020610dd4565b808273ffffffffffffffffffffffffffffffffffffffff16600073ffffffffffffffffffffffffffffffffffffffff167fddf252ad1be2c89b69c2b068fc378daa952ba7f163c4a11628f55a4df523b3ef60405160405180910390a45050565b6006805490506007600083815260200190815260200160002081905550600681908060018154018082558091505060019003906000526020600020016000909190919091505550565b600860008273ffffffffffffffffffffffffffffffffffffffff1673ffffffffffffffffffffffffffffffffffffffff168152602001908152602001600020805490506009600084815260200190815260200160002081905550600860008273ffffffffffffffffffffffffffffffffffffffff1673ffffffffffffffffffffffffffffffffffffffff1681526020019081526020016000208290806001815401808255809150506001900390600052602060002001600090919091909150555050565b60008082846110c491906119b2565b905083831115611109576040517f08c379a000000000000000000000000000000000000000000000000000000000815260040161110090611c2e565b60405180910390fd5b8091505092915050565b60008082846111229190611c4e565b905083811015611167576040517f08c379a000000000000000000000000000000000000000000000000000000000815260040161115e90611cf0565b60405180910390fd5b8091505092915050565b82805461117d90611720565b90600052602060002090601f01602090048101928261119f57600085556111e6565b82601f106111b857805160ff19168380011785556111e6565b828001600101855582156111e6579182015b828111156111e55782518255916020019190600101906111ca565b5b5090506111f391906111f7565b5090565b5b808211156112105760008160009055506001016111f8565b5090565b6000604051905090565b600080fd5b600080fd5b60007fffffffff0000000000000000000000000000000000000000000000000000000082169050919050565b61125d81611228565b811461126857600080fd5b50565b60008135905061127a81611254565b92915050565b6000602082840312156112965761129561121e565b5b60006112a48482850161126b565b91505092915050565b60008115159050919050565b6112c2816112ad565b82525050565b60006020820190506112dd60008301846112b9565b92915050565b600081519050919050565b600082825260208201905092915050565b60005b8381101561131d578082015181840152602081019050611302565b8381111561132c576000848401525b50505050565b6000601f19601f8301169050919050565b600061134e826112e3565b61135881856112ee565b93506113688185602086016112ff565b61137181611332565b840191505092915050565b600060208201905081810360008301526113968184611343565b905092915050565b6000819050919050565b6113b18161139e565b81146113bc57600080fd5b50565b6000813590506113ce816113a8565b92915050565b6000602082840312156113ea576113e961121e565b5b60006113f8848285016113bf565b91505092915050565b600073ffffffffffffffffffffffffffffffffffffffff82169050919050565b600061142c82611401565b9050919050565b61143c81611421565b82525050565b60006020820190506114576000830184611433565b92915050565b61146681611421565b811461147157600080fd5b50565b6000813590506114838161145d565b92915050565b600080604083850312156114a05761149f61121e565b5b60006114ae85828601611474565b92505060206114bf858286016113bf565b9150509250929050565b6114d28161139e565b82525050565b60006020820190506114ed60008301846114c9565b92915050565b60008060006060848603121561150c5761150b61121e565b5b600061151a86828701611474565b935050602061152b86828701611474565b925050604061153c868287016113bf565b9150509250925092565b60006020828403121561155c5761155b61121e565b5b600061156a84828501611474565b91505092915050565b600080fd5b600080fd5b7f4e487b7100000000000000000000000000000000000000000000000000000000600052604160045260246000fd5b6115b582611332565b810181811067ffffffffffffffff821117156115d4576115d361157d565b5b80604052505050565b60006115e7611214565b90506115f382826115ac565b919050565b600067ffffffffffffffff8211156116135761161261157d565b5b61161c82611332565b9050602081019050919050565b82818337600083830152505050565b600061164b611646846115f8565b6115dd565b90508281526020810184848401111561166757611666611578565b5b611672848285611629565b509392505050565b600082601f83011261168f5761168e611573565b5b813561169f848260208601611638565b91505092915050565b6000602082840312156116be576116bd61121e565b5b600082013567ffffffffffffffff8111156116dc576116db611223565b5b6116e88482850161167a565b91505092915050565b7f4e487b7100000000000000000000000000000000000000000000000000000000600052602260045260246000fd5b6000600282049050600182168061173857607f821691505b60208210810361174b5761174a6116f1565b5b50919050565b7f696e646578206f7574206f6620626f756e640000000000000000000000000000600082015250565b60006117876012836112ee565b915061179282611751565b602082019050919050565b600060208201905081810360008301526117b68161177a565b9050919050565b7f4e487b7100000000000000000000000000000000000000000000000000000000600052603260045260246000fd5b7f6f776e6572206164647265737320646f6573206e6f7420657869737400000000600082015250565b6000611822601c836112ee565b915061182d826117ec565b602082019050919050565b6000602082019050818103600083015261185181611815565b9050919050565b7f4552433732313a6164647265737320646f6573206e6f74206578697374000000600082015250565b600061188e601d836112ee565b915061189982611858565b602082019050919050565b600060208201905081810360008301526118bd81611881565b9050919050565b600081905092915050565b60006118da826112e3565b6118e481856118c4565b93506118f48185602086016112ff565b80840191505092915050565b600061190c82846118cf565b915081905092915050565b7f4572726f72206b727970746f6269726420616c72656164792065786973747300600082015250565b600061194d601f836112ee565b915061195882611917565b602082019050919050565b6000602082019050818103600083015261197c81611940565b9050919050565b7f4e487b7100000000000000000000000000000000000000000000000000000000600052601160045260246000fd5b60006119bd8261139e565b91506119c88361139e565b9250828210156119db576119da611983565b5b828203905092915050565b7f696e76616c696420616464726573730000000000000000000000000000000000600082015250565b6000611a1c600f836112ee565b9150611a27826119e6565b602082019050919050565b60006020820190508181036000830152611a4b81611a0f565b9050919050565b7f746f6b656e20646f6573206e6f742062656c6f6e6720746f207468697320616460008201527f6472657373000000000000000000000000000000000000000000000000000000602082015250565b6000611aae6025836112ee565b9150611ab982611a52565b604082019050919050565b60006020820190508181036000830152611add81611aa1565b9050919050565b7f4552433732313a6d696e74696e6720746f20746865207a65726f20616464726560008201527f7373206973206e6f7420616c6c6f776564000000000000000000000000000000602082015250565b6000611b406031836112ee565b9150611b4b82611ae4565b604082019050919050565b60006020820190508181036000830152611b6f81611b33565b9050919050565b7f4552433732313a746f6b656e20616c7265616479206d696e7465640000000000600082015250565b6000611bac601b836112ee565b9150611bb782611b76565b602082019050919050565b60006020820190508181036000830152611bdb81611b9f565b9050919050565b7f53616665206d61746820636f6e646974696f6e206f766572666c6f7700000000600082015250565b6000611c18601c836112ee565b9150611c2382611be2565b602082019050919050565b60006020820190508181036000830152611c4781611c0b565b9050919050565b6000611c598261139e565b9150611c648361139e565b9250827fffffffffffffffffffffffffffffffffffffffffffffffffffffffffffffffff03821115611c9957611c98611983565b5b828201905092915050565b7f53616665204d61746820636f6e646974696f6e206f766572666c6f7700000000600082015250565b6000611cda601c836112ee565b9150611ce582611ca4565b602082019050919050565b60006020820190508181036000830152611d0981611ccd565b905091905056fea26469706673582212203e3d3b1850c39572c71dfa2f8c2a6cc4f910dbc01edb4ecd2154a54b2364ef2564736f6c634300080d0033",
  "immutableReferences": {},
  "source": "//SPDX-License-Identifier:MIT\npragma solidity ^0.8.0;\n\nimport './ERC721Connector.sol';\ncontract KryptoBirdz is ERC721Connector\n{\n    //array to store our nfts\n    string [] public KryptoBird;\n    mapping(string => bool) kryptobirdexist;\n\n    function mint(string memory kryptobird) public{\n       // uint _id=KryptoBird.push(kryptobird);\n       require(!kryptobirdexist[kryptobird],'Error kryptobird already exists');\n       //.push does not return length but reference to the added element\n       KryptoBird.push(kryptobird);\n       uint _id=KryptoBird.length-1;\n\n        _mint(msg.sender,_id);\n\n        kryptobirdexist[kryptobird]=true;\n    }\n\n\n    constructor() ERC721Connector('KryptoBird','KBIRDZ')\n    {\n\n    }\n}",
  "sourcePath": "/home/unthinkable-lap-0315/Downloads/nft-marketplace-starter-kit/src/contracts/KryptoBirdz.sol",
  "compiler": {
    "name": "solc",
    "version": "0.8.13+commit.abaa5c0e.Emscripten.clang"
  },
  "schemaVersion": "3.4.6",
  "updatedAt": "2022-04-05T07:15:23.531Z",
  "networkType": "ethereum",
  "devdoc": {
    "kind": "dev",
    "methods": {},
    "version": 1
  },
  "userdoc": {
    "kind": "user",
    "methods": {},
    "version": 1
  }
}